:100000000C9434000C943E000C943E000C943E0082
:100010000C943E000C943E000C943E000C943E0068
:100020000C943E000C943E000C943E000C943E0058
:100030000C943E000C943E000C943E000C943E0048
:100040000C943E000C943E000C943E000C943E0038
:100050000C943E000C943E000C943E000C943E0028
:100060000C943E000C943E0011241FBECFEFD8E04C
:10007000DEBFCDBF0E9440000C9461000C940000D4
:10008000579A9AE130E525E35F98892F8A95F1F731
:100090005F9A832F8A95F1F75F98822F8A95F1F7FF
:1000A0005F9A892F8A95F1F75F98892F8A95F1F7E2
:1000B0005F9A892F8A95F1F75F98892F8A95F1F7D2
:0600C000E3CFF894FFCF2E
:00000001FF
