:100000000C9434000C9451000C9451000C94510049
:100010000C9451000C9451000C9451000C94F1007C
:100020000C9451000C9451000C9451000C949800C5
:100030000C9451000C9451000C945E000C945100EF
:100040000C9451000C9451000C9451000C945100EC
:100050000C9451000C9451000C9451000C945100DC
:100060000C9451000C94510011241FBECFEFD8E026
:10007000DEBFCDBF11E0A0E0B1E0E6E2F3E002C0F8
:1000800005900D92AA3BB107D9F721E0AAEBB1E0A8
:1000900001C01D92AA3CB207E1F70E9424010C9412
:1000A00091010C94000096B186B193FD04C084FDCB
:1000B00002C0459A01C04598429808951F920F9238
:1000C0000FB60F9211248F939F93EF93FF9380911C
:1000D000BA018F5F8093BA01E091BF01F091C00136
:1000E0009081891304C01092BA01409A04C0918192
:1000F000891301C040988091C5018F5F8093C5012D
:10010000E091BF01F091C0019281891304C0109267
:10011000C501419A04C09381891301C04198FF91A0
:10012000EF919F918F910F900FBE0F901F90189598
:100130001F920F920FB60F9211242F938F939F93BC
:10014000EF93FF93E091C301F091C401CF010196B9
:100150009093C4018093C3012081211109C0809133
:10016000BD019091BE019093C4018093C30103C06F
:100170002A3009F420E02BB98091C6019091C70183
:10018000009759F48CED95E09093C7018093C601D8
:1001900085B190E2892785B905C001979093C70181
:1001A0008093C6018091C8019091C901009751F4D4
:1001B00080910601909107019093C9018093C80135
:1001C000429A05C001979093C9018093C801FF919D
:1001D000EF919F918F912F910F900FBE0F901F90D5
:1001E00018951F920F920FB60F9211242F938F9391
:1001F0009F93EF93FF93E091C101F091C201CF0172
:1002000001969093C2018093C1012081211108C001
:100210008091BB019091BC019093C2018093C10178
:1002200095B1822F8F70892B85B995B1822F806F00
:10023000892385B9FF91EF919F918F912F910F9015
:100240000FBE0F901F901895259A87B1836087B9CC
:1002500088B1836088B93A9A429884B18F6084B932
:1002600085B1807F85B98FE78AB91BB83D9A87B180
:10027000877E87B988B1886188B980E591E09093DD
:10028000BC018093BB019093C2018093C101809116
:100290002E0190912F019093BE018093BD01909308
:1002A000C4018093C3018CE191E09093C0018093DD
:1002B000BF0184B5826084BD80916E0082608093AE
:1002C0006E008CE387BD85B5826085BD809181001D
:1002D00088608093810080916F00826080936F00BE
:1002E00085ED94E19093890080938800809181004E
:1002F0008160809381008091B00082608093B00023
:100300008091700082608093700088EC8093B300CD
:100310008091B10082608093B10078940E94530074
:06032000FDCFF894FFCFB1
:10032600A4066C0766086009F60935286B140000F8
:100336007150F12D00006137BF4600003D2F831933
:1003460000006D4BE33D00006401750186019701D5
:10035600A8010103040607080A0C0D00020304079E
:10036600080B0C0D0F0001030506070A0B0D0E0006
:1003760003040508090B0C0E0F0001030406080907
:100386000B0C0E00456E67696E656572732072759B
:100396006C65210A005648452032303520697320A5
:1003A600636F6F6C0A0056697465726269206973BF
:1003B6002034206D650A0055534320456E67696EEB
:1003C600656572696E670A0057686F206973205900
:0A03D6006F7274736F733F0A00002A
:00000001FF
