:100000000C9434000C943E000C943E000C943E0082
:100010000C943E000C943E000C943E000C943E0068
:100020000C943E000C943E000C943E000C943E0058
:100030000C943E000C943E000C943E000C943E0048
:100040000C943E000C943E000C943E000C943E0038
:100050000C943E000C943E000C943E000C943E0028
:100060000C943E000C943E0011241FBECFEFD8E04C
:10007000DEBFCDBF0E9454000C94C7000C9400005A
:1000800095B1907F95B925B1982F959595959595B2
:10009000922B95B99BB19F709BB99BB18295880FAC
:1000A000807E982B9BB908950F931F93DF93CF9376
:1000B000CDB7DEB72A970FB6F894DEBF0FBECDBF1F
:1000C000239A229A219A209A579A569A559A809161
:1000D0007C0010927C0080917C00836080937C0087
:1000E00080917C00806480937C0080917A00807491
:1000F00080937A0080917A00876080937A00809163
:100100007A00806880937A0081E089838FE48A8313
:1001100082E18B8386E08C838CE48D8384E28E8302
:1001200080E28F838FE0888719868CE08A878E0132
:100130000F5F1F4F80917A00806480937A000EC019
:10014000809178009091790067E670E00E94B3009A
:10015000F801E60FF11D80810E94400080917A0035
:1001600086FFE8CFEDCFAA1BBB1B51E107C0AA1F3A
:10017000BB1FA617B70710F0A61BB70B881F991F48
:100180005A95A9F780959095BC01CD010895F894F2
:02019000FFCF9F
:00000001FF
