:100000000C9434000C9446000C9446000C9446006A
:100010000C9446000C9446000C9446000C94460048
:100020000C9446000C9446000C9446000C94460038
:100030000C9446000C9446000C9446000C94460028
:100040000C9446000C9446000C9446000C94460018
:100050000C9446000C94A9000C9446000C944600A5
:100060000C9446000C94460011241FBECFEFD8E03C
:10007000DEBFCDBF11E0A0E0B1E001C01D92AB300A
:10008000B107E1F70E945C000C94F5000C940000AD
:1000900095B1907F95B925B1982F959595959595A2
:1000A000922B95B99BB19F709BB99BB18295880F9C
:1000B000807E982B9BB90895239A229A219A209AA0
:1000C000579A569A559A80917C0010927C008091A4
:1000D0007C00836080937C0080917C0080648093AE
:1000E0007C0080917A00807480937A0080917A00FD
:1000F000876080937A0080917A00806880937A008C
:1001000080917A00886080937A0080917A00806480
:1001100080937A00789481E0809301018FE480934A
:10012000020182E18093030186E0809304018CE464
:100130008093050184E28093060180E280930701A9
:100140008FE080930801109209018CE080930A01EE
:10015000FFCF1F920F920FB60F9211242F933F9350
:100160004F935F936F937F938F939F93AF93BF93BF
:10017000EF93FF93809178009091790067E670E0AB
:100180000E94E10060930001E1E0F1E0E60FF11D63
:1001900080810E944800EAE7F0E0808180648083EB
:1001A000FF91EF91BF91AF919F918F917F916F914F
:1001B0005F914F913F912F910F900FBE0F901F9025
:1001C0001895AA1BBB1B51E107C0AA1FBB1FA6178E
:1001D000B70710F0A61BB70B881F991F5A95A9F7F0
:0E01E00080959095BC01CD010895F894FFCF55
:00000001FF
