:100000000C9434000C9451000C9451000C94510049
:100010000C9451000C9451000C9451000C9451001C
:100020000C9451000C9451000C9451000C94CB0092
:100030000C9451000C9451000C9451000C945100FC
:100040000C9451000C9451000C9451000C945100EC
:100050000C9451000C9467020C9451000C945100C4
:100060000C9451000C94510011241FBECFEFD8E026
:10007000DEBFCDBF11E0A0E0B1E0EEE5FBE002C0E5
:1000800005900D92A631B107D9F711E0A6E1B1E0D4
:1000900001C01D92AA31B107E1F70E9468010C94DA
:1000A000AD050C940000A1E8B0E02C9128602C93E1
:1000B000EFE6F0E020812260208390938900809316
:1000C00088008C9184608C9308959BB19F709BB93C
:1000D0009BB1807F892B8BB9299A299A29980895F9
:1000E0001F93182F289A0E946500812F8295807F88
:1000F0000E94650080E49FE10197F1F71F91089548
:10010000CF93DF93EC0102C00E9470008991882395
:10011000D9F7DF91CF9108951F93182F28980E9447
:100120006500812F8295807F0E94650080E49FE1B9
:100130000197F1F71F910895803248F4803120F043
:1001400080550E948C00089580580E948C0008956C
:1001500080E69AEE0197F1F780E30E94650080E265
:100160009EE40197F1F780E30E94650080EE91E044
:100170000197F1F780E30E94650080E20E9465002C
:1001800080E49FE10197F1F788E20E948C008FE004
:100190000E948C0008951F920F920FB60F921124A7
:1001A0000F932F933F934F935F936F937F938F930F
:1001B0009F93AF93BF93EF93FF93DF93CF9300D0C1
:1001C00000D00F92CDB7DEB79091130190FD19C00A
:1001D000809118018F5F809318018A3039F4109252
:1001E0001801809117018F5F80931701809117018B
:1001F0008A3039F410921701809116018F5F809335
:100200001601892F62E00E949B02092F913009F0AC
:1002100046C08091140180FD42C0109216011092D8
:1002200017011092180186E10E949C008DB79EB7BD
:100230000C970FB6F8949EBF0FBE8DBFEDB7FEB7FB
:10024000319681E090E08C0F9D1FADB7BEB712963E
:100250009C938E93119785E090E09383828380E056
:1002600091E0958384838091160186831782809123
:1002700017018087118680911801828713860E945A
:10028000C802ADB7BEB71C960FB6F894BEBF0FBE7E
:10029000ADBFCE0101960E948000009314010F9023
:1002A0000F900F900F900F90CF91DF91FF91EF91F2
:1002B000BF91AF919F918F917F916F915F914F917E
:1002C0003F912F910F910F900FBE0F901F90189597
:1002D0000F931F93DF93CF93CDB7DEB760970FB621
:1002E000F894DEBF0FBECDBF579A569A559A549ACE
:1002F000219A209A80917C00806480937C00809178
:100300007A008F6080937A0080917A008068809371
:100310007A0078940E94A80081E00E948C0082E01C
:100320000E948C0083E00E949C0000D000D000D08E
:10033000EDB7FEB731968E010A5F1F4FADB7BEB75E
:1003400012961C930E9311978BE090E09383828317
:1003500088E091E0958384830E94C8028DB79EB7A0
:1003600006960FB6F8949EBF0FBE8DBFC8010E94BF
:10037000800086E10E949C00ADB7BEB71C970FB607
:10038000F894BEBF0FBEADBFEDB7FEB731968E017C
:100390000F5F1F4F12961C930E93119785E090E00C
:1003A0009383828380E091E095838483809116011A
:1003B00086831782809117018087118680911801AA
:1003C000828713860E94C8028DB79EB70C960FB61F
:1003D000F8949EBF0FBE8DBFC8010E94800080911F
:1003E0007A00806480937A008AE698E10E94530044
:1003F000FFCF0F931F93DF93CF9300D000D00F92C6
:10040000CDB7DEB7823031F4809113018F5F8093D6
:10041000130107C0843029F4809114018F5F809309
:1004200014018091130180FD3FC08091140162E0AE
:100430000E949B029130C1F586E10E949C008DB71D
:100440009EB70C970FB6F8949EBF0FBE8DBFEDB749
:10045000FEB731968E010F5F1F4FADB7BEB7129634
:100460001C930E93119785E090E09383828380E044
:1004700091E0958384838091160186831782809111
:1004800017018087118680911801828713860E9448
:10049000C8028DB79EB70C960FB6F8949EBF0FBEDC
:1004A0008DBFC8010E94800088EE93E020E931E012
:1004B000F9013197F1F70197D9F70F900F900F904D
:1004C0000F900F90CF91DF911F910F9108951F9280
:1004D0000F920FB60F9211242F933F934F935F9378
:1004E0006F937F938F939F93AF93BF93EF93FF93FC
:1004F000809178009091790067E670E00E94A802F0
:10050000862F609319010E94F901EAE7F0E08081EB
:1005100080648083FF91EF91BF91AF919F918F9104
:100520007F916F915F914F913F912F910F900FBEEF
:100530000F901F90189587FB082E062687FD819542
:1005400067FD619519D00EF4919507FC819508958A
:10055000AA1BBB1B51E107C0AA1FBB1FA617B707E9
:1005600010F0A61BB70B881F991F5A95A9F7809505
:100570009095BC01CD010895991B79E004C0991FA5
:10058000961708F0961B881F7A95C9F780950895ED
:10059000AEE0B0E0EEECF2E00C9484050D891E892B
:1005A0008F89988D97FF02C080E090E801979E8325
:1005B0008D831A83098386E08C839E01255E3F4FDD
:1005C000CE010196698D7A8DA9010E94F9024D81B3
:1005D0005E8157FD0AC02F813885421753070CF4FE
:1005E0009A01020F131FF80110822E96E4E00C947A
:1005F000A005ABE0B0E0EFEFF2E00C9476053C0133
:100600002B015A01FC0117821682838181FD03C0F0
:100610006FEF7FEFC6C19AE0892E1E010894211C5E
:10062000311CF3012381F20123FD859123FF819188
:100630002F01882309F4B2C1853239F423FD859155
:1006400023FF81912F01853229F490E0B3010E94AC
:10065000EC04E7CF982FFF24EE249924FFE1FF1547
:10066000D0F09B3269F09C3228F4903259F09332EA
:1006700091F40EC09D3249F0903369F441E024C0FA
:1006800052E0F52A84E0F82A28C098E0F92A25C02B
:10069000E0E1FE2A22C0F7FC29C0892F80538A306E
:1006A00070F4F6FE05C0989C902C1124980E15C08D
:1006B000E89CE02C1124E80EF0E2FF2A0EC09E32E6
:1006C00029F4F6FC6BC140E4F42A07C09C3619F407
:1006D00050E8F52A02C0983649F4F20123FD9591BD
:1006E00023FF91912F01992309F0B8CF892F8554C9
:1006F000833018F08052833038F444E050E0A40E88
:10070000B51E5FE359830FC0933631F0933779F00C
:10071000933509F056C020C0F5018081898342E0FD
:1007200050E0A40EB51E610101E010E012C0F50119
:10073000C080D180F6FC03C06FEF7FEF02C0692D4F
:1007400070E042E050E0A40EB51EC6010E94E10434
:100750008C015FE7F52214C0F501C080D180F6FC62
:1007600003C06FEF7FEF02C0692D70E042E050E000
:10077000A40EB51EC6010E94D6048C0150E8F52ACD
:10078000F3FE07C01AC080E290E0B3010E94EC04BF
:10079000EA948E2D90E008171907A8F30EC0F60111
:1007A000F7FC8591F7FE81916F0190E0B3010E9403
:1007B000EC04E110EA94015010400115110579F79D
:1007C000EAC0943611F0993669F5F7FE08C0F501D4
:1007D000208131814281538184E090E00AC0F5019B
:1007E000808191819C01442737FD4095542F82E000
:1007F00090E0A80EB91E9FE6F92257FF09C0509558
:100800004095309521953F4F4F4F5F4FE0E8FE2ACE
:10081000CA01B901A1012AE030E00E941805D82ED2
:10082000D21840C0953729F41F2D1F7E2AE030E0F2
:100830001DC01F2D197F9F3661F0903720F4983529
:1008400009F0ACC00FC0903739F0983709F0A6C056
:1008500004C028E030E00AC0106114FD146020E1FB
:1008600030E004C014FD166020E132E017FF08C03C
:10087000F501608171818281938144E050E008C07C
:10088000F50180819181BC0180E090E042E050E080
:10089000A40EB51EA1010E941805D82ED2188FE70C
:1008A000F82EF122F6FE0BC05EEFF522D91438F4D3
:1008B000F4FE07C0F2FC05C08FEEF82202C01D2D29
:1008C00001C0192DF4FE0DC0FE01ED0DF11D80815A
:1008D000803319F499EEF92208C01F5FF2FE05C0BB
:1008E00003C08F2D867809F01F5F0F2DF3FC14C015
:1008F000F0FE0FC01E1510F09D2C0BC09D2C9E0C01
:10090000911A1E2D06C080E290E0B3010E94EC0413
:100910001F5F1E15C0F304C01E1510F4E11A01C0BC
:10092000EE2404FF0FC080E390E0B3010E94EC04CA
:1009300002FF1DC001FD03C088E790E00EC088E5FE
:1009400090E00BC0802F867891F001FF02C08BE20F
:1009500001C080E2F7FC8DE290E0B3010E94EC045C
:1009600006C080E390E0B3010E94EC049A94D9148D
:10097000C0F3DA94F101ED0DF11D808190E0B30137
:100980000E94EC04DD20A9F706C080E290E0B301EC
:100990000E94EC04EA94EE20C1F743CEF301668195
:1009A0007781CB012B96E2E10C949205FC01059036
:1009B000615070400110D8F7809590958E0F9F1F61
:1009C0000895FC016150704001900110D8F78095A6
:1009D00090958E0F9F1F08950F931F93CF93DF93D2
:1009E0008C01EB018B8181FF1BC082FF0DC02E812A
:1009F0003F818C819D812817390764F4E881F98152
:100A00000193F983E88306C0E885F985802F09956D
:100A1000892B31F48E819F8101969F838E8302C042
:100A20000FEF1FEFC801DF91CF911F910F91089534
:100A3000FA01AA27283051F1203181F1E8946F930F
:100A40006E7F6E5F7F4F8F4F9F4FAF4FB1E03ED0B5
:100A5000B4E03CD0670F781F891F9A1FA11D680F53
:100A6000791F8A1F911DA11D6A0F711D811D911D86
:100A7000A11D20D009F468943F912AE0269F1124FB
:100A80003019305D3193DEF6CF010895462F47705F
:100A9000405D4193B3E00FD0C9F7F6CF462F4F70BA
:100AA000405D4A3318F0495D31FD4052419302D018
:100AB000A9F7EACFB4E0A6959795879577956795BE
:100AC000BA95C9F700976105710508959B01AC01BE
:100AD0000A2E06945795479537952795BA95C9F7E5
:100AE000620F731F841F951FA01D08952F923F92C0
:100AF0004F925F926F927F928F929F92AF92BF922E
:100B0000CF92DF92EF92FF920F931F93CF93DF93D9
:100B1000CDB7DEB7CA1BDB0B0FB6F894DEBF0FBE36
:100B2000CDBF09942A88398848885F846E847D8483
:100B30008C849B84AA84B984C884DF80EE80FD8085
:100B40000C811B81AA81B981CE0FD11D0FB6F894FB
:0E0B5000DEBF0FBECDBFED010895F894FFCFBC
:100B5E00256425642E25640053746F707761746369
:060B6E00682100010100F6
:00000001FF
