:100000000C9434000C9451000C9451000C94510049
:100010000C94C1000C9451000C9451000C945100AC
:100020000C9451000C9451000C9451000C9451000C
:100030000C9451000C9451000C9451000C945100FC
:100040000C9451000C9451000C945B000C945100E2
:100050000C9451000C9451000C9451000C945100DC
:100060000C9451000C94510011241FBECFEFD8E026
:10007000DEBFCDBF11E0A0E0B1E0ECEAF4E102C0E8
:1000800005900D92A632B107D9F711E0A6E2B1E0D2
:1000900001C01D92AA33B107E1F70E945C020C94E3
:1000A000540A0C940000982F8091C00085FFFCCF6B
:1000B0009093C60008951F920F920FB60F921124CD
:1000C0002F933F934F935F936F938F939F93EF93F0
:1000D000FF938091C6008B3211F08D3229F480930A
:1000E000330181E090E00DC0E0913801F0913901D9
:1000F0008053ED5CFE4F80838091380190913901EF
:100100000196909339018093380180913801909144
:100110003901049741F580913401209135014091D6
:10012000360164E68602C00111246AE026029001CD
:100130001124820F931F552747FD5095840F951F5B
:1001400090932F0180932E01809133018D3259F4C9
:1001500080912E0190912F01909581959F4F9093C2
:100160002F0180932E01FF91EF919F918F916F91BD
:100170005F914F913F912F910F900FBE0F901F9065
:1001800018951F920F920FB60F9211248F939F9381
:1001900080912C0190912D01892B09F0BAC03199E1
:1001A00015C0329913C080913201882379F480916F
:1001B0003701813059F41092370180911D019091DF
:1001C0001E01019690931E0180931D01319915C067
:1001D000329913C080913201813079F480913701D6
:1001E000882359F41092320180911D0190911E01D3
:1001F000019790931E0180931D01319916C0329B87
:1002000014C080913201882381F4809137018823C2
:1002100061F481E08093320180911D0190911E0173
:10022000019690931E0180931D01319915C0329B58
:1002300013C080913201813079F48091370181308F
:1002400059F41092370180911D0190911E01019780
:1002500090931E0180931D01319B16C0329914C0EA
:1002600080913201882381F480913701882361F4E1
:1002700081E08093370180911D0190911E010197CB
:1002800090931E0180931D01319B15C0329913C0BC
:1002900080913201813079F480913701813059F4B5
:1002A0001092320180911D0190911E010196909350
:1002B0001E0180931D01319B15C0329B13C080919C
:1002C0003201882379F480913701813059F4809389
:1002D000320180911D0190911E01019790931E01A2
:1002E00080931D01319B15C0329B13C09091320148
:1002F000913079F480913701882359F49093370134
:1003000080911D0190911E01019690931E01809392
:100310001D0180912C0190912D01019709F0BAC027
:10032000319915C0329913C080913201882379F434
:1003300080913701813059F4109237018091210169
:10034000909122010196909322018093210131998D
:1003500015C0329913C080913201813079F48091B7
:100360003701882359F41092320180912101909134
:10037000220101979093220180932101319916C0A7
:10038000329B14C080913201882381F4809137011F
:10039000882361F481E08093320180912101909162
:1003A000220101969093220180932101319915C079
:1003B000329B13C080913201813079F480913701F2
:1003C000813059F4109237018091210190912201DE
:1003D00001979093220180932101319B16C032999D
:1003E00014C080913201882381F4809137018823E1
:1003F00061F481E080933701809121019091220185
:1004000001979093220180932101319B15C032996D
:1004100013C080913201813079F4809137018130AD
:1004200059F410923201809121019091220101969C
:100430009093220180932101319B15C0329B13C000
:1004400080913201882379F480913701813059F409
:100450008093320180912101909122010197909324
:10046000220180932101319B15C0329B13C09091D2
:100470003201913079F480913701882359F49093B7
:1004800037018091210190912201019690932201E0
:10049000809321019F918F910F900FBE0F901F901D
:1004A00018959BB19F709BB99BB1807F892B8BB9AD
:1004B000299A299A299808952F923F924F925F92F4
:1004C0006F927F928F929F92AF92BF92CF92DF9264
:1004D000EF92FF920F931F93DF93CF93CDB7DEB7C9
:1004E0006B970FB6F894DEBF0FBECDBF579A569AE2
:1004F000559A549A539A529A519A219A209A259A27
:100500002D982B9A2C9A419A429A449A459A809116
:10051000680082608093680080916C0086608093A0
:100520006C00789487E690E09093C5008093C400B7
:100530008091C10088698093C10086E08093C200E9
:100540000E9414070E94C6060E94E50581E00E94F1
:10055000C20582E00E94C20580E091E00E94B605DB
:1005600080912601909127012DB73EB72850304049
:100570000FB6F8943EBF0FBE2DBFEDB7FEB7319654
:100580008E010D5F1F4FADB7BEB712961C930E9331
:10059000119774E0C72ED12CD382C28266E0E62E7A
:1005A00061E0F62EF582E482978386830E946F07CE
:1005B0002DB73EB7285F3F4F0FB6F8943EBF0FBE32
:1005C0002DBFC8010E94B60589E00E94D90589E0C7
:1005D00091E00E94B60580912E0190912F01ADB758
:1005E000BEB718970FB6F894BEBF0FBEADBFEDB73C
:1005F000FEB731968E01095F1F4F12961C930E9322
:100600001197D382C282F582E482978386830E9407
:100610006F072DB73EB7285F3F4F0FB6F8943EBF28
:100620000FBE2DBFC8010E94B60580E10E94D9050A
:100630008EE091E00E94B60580911D0190911E010F
:10064000ADB7BEB718970FB6F894BEBF0FBEADBF1B
:10065000EDB7FEB731968E01055F1F4F12961C93C2
:100660000E931197D382C282F582E48297838683A8
:100670000E946F072DB73EB7285F3F4F0FB6F89423
:100680003EBF0FBE2DBFC8010E94B60588E10E9483
:10069000D90583E191E00E94B605809121019091F6
:1006A0002201ADB7BEB718970FB6F894BEBF0FBE04
:1006B000ADBFEDB7FEB731968E01015F1F4F1296A9
:1006C0001C930E931197D382C282F582E4829783A2
:1006D00086830E946F072DB73EB7285F3F4F0FB646
:1006E000F8943EBF0FBE2DBFC8010E94B6053199D8
:1006F00006C0329904C0109232011092370131992C
:1007000007C0329B05C081E080933201109237010F
:10071000319B07C0329905C01092320181E080936D
:100720003701319B07C0329B05C081E080933201C5
:10073000809337011E010894211C311C5AE5452E77
:10074000512C43E1642E712C6C0E7D1E8E01095ECE
:100750001F4F30E9E32E31E0F32E21E0822E912C61
:1007600095E0A92EB12C89E1C82E81E0D82EC101D7
:100770000E94ED06898190E09093290180932801E1
:100780008091280190912901DC01A49DC001A59DC3
:10079000900DB49D900D1124909329018093280110
:1007A0008A81882349F080912801909129018D96B2
:1007B000909329018093280180912801909129012B
:1007C00062E370E00E944807605E7F4F70932701EC
:1007D00060932601809126019091270197FD03C027
:1007E000BBE2BB8B02C02DE22B8B80912601909146
:1007F000270164E670E00E944807605D6C8B809181
:1008000026019091270164E670E00E9448076AE0A3
:1008100070E00E944807605D6D8B80912601909189
:1008200027016AE070E00E944807805D8E8BF3012B
:1008300090818091C00085FFFCCF9093C6003196D7
:10084000E017F107A9F71B990BC088EE93E0F701B9
:100850003197F1F70197D9F710922D0110922C01E1
:100860001C990BC088EE93E0F7013197F1F70197DF
:10087000D9F790922D0180922C0120911D01309189
:100880001E0180912601909127018217930714F48D
:100890005B9A01C05B9820912101309122018091E7
:1008A0002601909127012817390714F45A9A01C09C
:1008B0005A98209126013091270180912A01909128
:1008C0002B0128173907C9F188EE93E0F70131971A
:1008D000F1F70197D9F785E00E94D90580912601AB
:1008E00090912701ADB7BEB718970FB6F894BEBF69
:1008F0000FBEADBFEDB7FEB7319612961C930E93A7
:100900001197B382A282D582C482978386830E9484
:100910006F072DB73EB7285F3F4F0FB6F8943EBF25
:100920000FBE2DBFC8010E94B6058091260190918F
:10093000270190932B0180932A0120912E01309161
:100940002F01809130019091310128173907C9F1A9
:1009500088EE93E0F7013197F1F70197D9F78DE031
:100960000E94D90580912E0190912F01ADB7BEB79D
:1009700018970FB6F894BEBF0FBEADBFEDB7FEB768
:10098000319612961C930E931197B382A282D58250
:10099000C482978386830E946F072DB73EB7285F76
:1009A0003F4F0FB6F8943EBF0FBE2DBFC8010E9447
:1009B000B60580912E0190912F0190933101809383
:1009C000300180912C0190912D01892B09F057C0A5
:1009D00020911D0130911E018091210190912201F1
:1009E0002817390744F080912101909122019093BA
:1009F0001E0180931D0120911D0130911E018091E7
:100A00001F019091200128173907C9F188EE93E062
:100A1000F7013197F1F70197D9F784E10E94D905E1
:100A200080911D0190911E01ADB7BEB718970FB60A
:100A3000F894BEBF0FBEADBFEDB7FEB731961296AC
:100A40001C930E931197B382A282D582C48297839E
:100A500086830E946F072DB73EB7285F3F4F0FB6C2
:100A6000F8943EBF0FBE2DBFC8010E94B60580910D
:100A70001D0190911E019093200180931F01809190
:100A80002C0190912D01019709F071CE2091210147
:100A90003091220180911D0190911E0182179307D0
:100AA00044F080911D0190911E019093220180934A
:100AB0002101209121013091220180912301909107
:100AC00024012817390709F452CE88EE93E0F70184
:100AD0003197F1F70197D9F78DE10E94D9058091FF
:100AE000210190912201ADB7BEB718970FB6F894C7
:100AF000BEBF0FBEADBFEDB7FEB7319612961C93C9
:100B00000E931197B382A282D582C4829783868383
:100B10000E946F072DB73EB7285F3F4F0FB6F8947E
:100B20003EBF0FBE2DBFC8010E94B60580912101B6
:100B300090912201909324018093230118CE0F936A
:100B40001F93289A082F10E0C8010E945102C80183
:100B500024E0880F991F2A95E1F70E94510280E452
:100B60009FE10197F1F71F910F910895CF93DF93C4
:100B7000EC0102C00E949F0589918823D9F7DF917B
:100B8000CF9108950F931F932898082F10E0C80164
:100B90000E945102C80134E0880F991F3A95E1F78D
:100BA0000E94510280E49FE10197F1F71F910F919C
:100BB0000895803248F4803120F080550E94C205AB
:100BC000089580580E94C205089580E69AEE019724
:100BD000F1F780E390E00E94510280E29EE40197E9
:100BE000F1F780E390E00E94510280EE91E00197DE
:100BF000F1F780E390E00E94510280E290E00E94D1
:100C0000510280E49FE10197F1F788E20E94C2055A
:100C10008FE00E94C2050895CF92DF92EF92FF927B
:100C20000F931F934115510521F40115110509F486
:100C3000A0C094EA9093BC009091BC0097FFFCCFB9
:100C40009091B900987F983009F068C0982F9E7FE6
:100C50009093BB0094E89093BC009091BC0097FFE8
:100C6000FCCF9091B900987F983121F0903209F033
:100C700055C051C0FB01460F571F64E8E417F50744
:100C800091F091919093BB006093BC009091BC0057
:100C900097FFFCCF9091B900987F983279F3903309
:100CA000E9F590E338C0F901020F131F24E8E017BB
:100CB000F10779F091919093BB002093BC00909143
:100CC000BC0097FFFCCF9091B900987F983279F3E0
:100CD000E6CFC114D10409F44AC020E194EA90930C
:100CE000BC009091BC0097FFFCCF9091B900987F19
:100CF000921314C081608093BB0084E88093BC0091
:100D00008091BC0087FFFCCF9091B900987F903410
:100D100039F0983419F484E98093BC00892F2FC0EE
:100D2000F70184EC91E0C916D10491F08093BC00E6
:100D30009091BC0097FFFCCF9091B900987F21E083
:100D4000C21AD108903551F79091BB009193EACF28
:100D500084E88093BC008091BC0087FFFCCF909119
:100D6000B900987F9835D1F68091BB00808390E0E0
:100D7000D2CFC114D10411F028E0B0CF80E01F9190
:100D80000F91FF90EF90DF90CF900895CF92DF9278
:100D9000EF92FF920F931F93CF93DF931F92CDB7E4
:100DA000DEB78EEE8983C12CD12CE12CF12C00E032
:100DB00010E020E030E041E050E0BE016F5F7F4F87
:100DC00080E90E940C060F90DF91CF911F910F9147
:100DD000FF90EF90DF90CF900895CF92DF92EF9247
:100DE000FF920F931F93CF93DF931F92CDB7DEB780
:100DF0002AEA298322E0C22ED12C7C0100E010E0F7
:100E000020E030E041E050E0BE016F5F7F4F80E9BD
:100E10000E940C060F90DF91CF911F910F91FF90D0
:100E2000EF90DF90CF900895CF92DF92EF92FF92F4
:100E30000F931F93CF93DF9300D0CDB7DEB71092FF
:100E4000B90089E48093B8008CEA898382E08A83C0
:100E5000C12CD12CE12CF12C00E010E020E030E09E
:100E600042E050E0BE016F5F7F4F80E90E940C06B8
:100E70000F900F90DF91CF911F910F91FF90EF9006
:100E8000DF90CF9008951092B9008093B800089534
:100E900097FB092E07260AD077FD04D00CD006D088
:100EA00000201AF4709561957F4F0895F6F790959C
:100EB00081959F4F0895AA1BBB1B51E107C0AA1F34
:100EC000BB1FA617B70710F0A61BB70B881F991FEB
:100ED0005A95A9F780959095BC01CD010895AEE093
:100EE000B0E0E5E7F7E00C942B0A0D891E898F89A5
:100EF000988D97FF02C080E090E801979E838D83D4
:100F00001A83098386E08C839E01255E3F4FCE01C4
:100F10000196698D7A8DA9010E94A0074D815E819D
:100F200057FD0AC02F813885421753070CF49A01E8
:100F3000020F131FF80110822E96E4E00C94470A6A
:100F4000ABE0B0E0E6EAF7E00C941D0A3C012B01AF
:100F50005A01FC0117821682838181FD03C06FEF65
:100F60007FEFC6C19AE0892E1E010894211C311C16
:100F7000F3012381F20123FD859123FF81912F014C
:100F8000882309F4B2C1853239F423FD859123FF0A
:100F900081912F01853229F490E0B3010E949309D9
:100FA000E7CF982FFF24EE249924FFE1FF15D0F01E
:100FB0009B3269F09C3228F4903259F0933291F4CC
:100FC0000EC09D3249F0903369F441E024C052E0F4
:100FD000F52A84E0F82A28C098E0F92A25C0E0E143
:100FE000FE2A22C0F7FC29C0892F80538A3070F472
:100FF000F6FE05C0989C902C1124980E15C0E89C14
:10100000E02C1124E80EF0E2FF2A0EC09E3229F4F3
:10101000F6FC6BC140E4F42A07C09C3619F450E892
:10102000F52A02C0983649F4F20123FD959123FF79
:1010300091912F01992309F0B8CF892F85548330DE
:1010400018F08052833038F444E050E0A40EB51E0E
:101050005FE359830FC0933631F0933779F09335BE
:1010600009F056C020C0F5018081898342E050E03C
:10107000A40EB51E610101E010E012C0F501C080B0
:10108000D180F6FC03C06FEF7FEF02C0692D70E0E6
:1010900042E050E0A40EB51EC6010E9488098C01F2
:1010A0005FE7F52214C0F501C080D180F6FC03C0D3
:1010B0006FEF7FEF02C0692D70E042E050E0A40EB8
:1010C000B51EC6010E947D098C0150E8F52AF3FE89
:1010D00007C01AC080E290E0B3010E949309EA942D
:1010E0008E2D90E008171907A8F30EC0F601F7FC43
:1010F0008591F7FE81916F0190E0B3010E94930901
:10110000E110EA94015010400115110579F7EAC089
:10111000943611F0993669F5F7FE08C0F501208183
:1011200031814281538184E090E00AC0F5018081E1
:1011300091819C01442737FD4095542F82E090E037
:10114000A80EB91E9FE6F92257FF09C05095409599
:10115000309521953F4F4F4F5F4FE0E8FE2ACA017F
:10116000B901A1012AE030E00E94BF09D82ED218AF
:1011700040C0953729F41F2D1F7E2AE030E01DC0A6
:101180001F2D197F9F3661F0903720F4983509F0B4
:10119000ACC00FC0903739F0983709F0A6C004C032
:1011A00028E030E00AC0106114FD146020E130E056
:1011B00004C014FD166020E132E017FF08C0F501FD
:1011C000608171818281938144E050E008C0F50123
:1011D00080819181BC0180E090E042E050E0A40E6B
:1011E000B51EA1010E94BF09D82ED2188FE7F82E94
:1011F000F122F6FE0BC05EEFF522D91438F4F4FEAE
:1012000007C0F2FC05C08FEEF82202C01D2D01C000
:10121000192DF4FE0DC0FE01ED0DF11D808180330E
:1012200019F499EEF92208C01F5FF2FE05C003C051
:101230008F2D867809F01F5F0F2DF3FC14C0F0FE90
:101240000FC01E1510F09D2C0BC09D2C9E0C911AEA
:101250001E2D06C080E290E0B3010E9493091F5F3B
:101260001E15C0F304C01E1510F4E11A01C0EE24CF
:1012700004FF0FC080E390E0B3010E94930902FFD6
:101280001DC001FD03C088E790E00EC088E590E036
:101290000BC0802F867891F001FF02C08BE201C065
:1012A00080E2F7FC8DE290E0B3010E94930906C052
:1012B00080E390E0B3010E9493099A94D914C0F39B
:1012C000DA94F101ED0DF11D808190E0B3010E94EF
:1012D0009309DD20A9F706C080E290E0B3010E94E7
:1012E0009309EA94EE20C1F743CEF301668177813A
:1012F000CB012B96E2E10C94390AFC010590615078
:1013000070400110D8F7809590958E0F9F1F08951B
:10131000FC016150704001900110D8F780959095C4
:101320008E0F9F1F08950F931F93CF93DF938C0110
:10133000EB018B8181FF1BC082FF0DC02E813F819D
:101340008C819D812817390764F4E881F981019324
:10135000F983E88306C0E885F985802F0995892BF4
:1013600031F48E819F8101969F838E8302C00FEF9F
:101370001FEFC801DF91CF911F910F910895FA01DE
:10138000AA27283051F1203181F1E8946F936E7FC4
:101390006E5F7F4F8F4F9F4FAF4FB1E03ED0B4E0B5
:1013A0003CD0670F781F891F9A1FA11D680F791FF6
:1013B0008A1F911DA11D6A0F711D811D911DA11D07
:1013C00020D009F468943F912AE0269F1124301917
:1013D000305D3193DEF6CF010895462F4770405DB2
:1013E0004193B3E00FD0C9F7F6CF462F4F70405D61
:1013F0004A3318F0495D31FD4052419302D0A9F7BC
:10140000EACFB4E0A6959795879577956795BA95B5
:10141000C9F700976105710508959B01AC010A2E7B
:1014200006945795479537952795BA95C9F7620F52
:10143000731F841F951FA01D08952F923F924F92F6
:101440005F926F927F928F929F92AF92BF92CF9254
:10145000DF92EF92FF920F931F93CF93DF93CDB75D
:10146000DEB7CA1BDB0B0FB6F894DEBF0FBECDBFD5
:1014700009942A88398848885F846E847D848C84A6
:101480009B84AA84B984C884DF80EE80FD800C81AF
:101490001B81AA81B981CE0FD11D0FB6F894DEBF92
:0C14A0000FBECDBFED010895F894FFCF02
:1014AC0054656D703A00256400524D543A004C6FEF
:1014BC00773A00486967683A002564200046004680
:0614CC0000640064000052
:00000001FF
