:100000000C9434000C9449000C9449000C94490061
:100010000C9449000C9449000C9449000C9449003C
:100020000C9449000C9449000C9449000C9449002C
:100030000C9449000C9449000C9449000C9449001C
:100040000C9449000C9449000C9449000C9449000C
:100050000C9449000C9449000C9449000C944900FC
:100060000C9449000C94490011241FBECFEFD8E036
:10007000DEBFCDBF11E0A0E0B1E0EEE2F9E002C0EA
:1000800005900D92AA30B107D9F70E9456000C9442
:1000900095040C9400009BB19F709BB99BB1807F2D
:1000A000892B8BB9299A299A299808956F927F9262
:1000B0008F929F92AF92BF92CF92DF92EF92FF9278
:1000C0000F931F93DF93CF9300D000D00F92CDB743
:1000D000DEB7579A569A559A549A219A209A449A7A
:1000E000459A0E94890181E00E94660182E00E9497
:1000F000660180E091E00E945A01349B86B1349BF6
:1001000002C0EE240AC086B190E035E0969587954E
:100110003A95E1F7EE24E394E822349B06C0359942
:1001200004C0EE24FF24F39401C0FF24349B06C0D6
:10013000359B04C0EE24E394FF24F39400E010E028
:1001400020E9622E21E0722E6E010894C11CD11CA0
:1001500095E0892E912C85E0A82E81E0B82E02C072
:10016000FF24F39488EE93E0F3013197F1F70197C0
:10017000D9F784E00E947D018DB79EB708970FB62E
:10018000F8949EBF0FBE8DBFEDB7FEB73196ADB7E9
:10019000BEB71296DC92CE92119793828282B5827C
:1001A000A482178306830E94B0018DB79EB708967C
:1001B0000FB6F8949EBF0FBE8DBFC6010E945A01B4
:1001C00034990AC0359908C0EE2031F491E0F9164F
:1001D00011F40F5F1F4FFF2434990AC0359908C0EE
:1001E000A1E0EA1629F4FF2019F401501040EE2492
:1001F00034990AC0359B08C0EE2031F4FF2021F469
:100200000F5F1F4FEE24E39434990AC0359B08C05A
:10021000B1E0EB1629F4FB1611F401501040FF2455
:10022000349B0AC0359908C0EE2031F4FF2011F448
:1002300001501040FF24F394349B0AC0359908C044
:1002400081E0E81629F4F81619F40F5F1F4FEE2429
:10025000349B0BC0359B09C0EE2039F491E0F916B0
:1002600021F401501040EE24E394349B7BCF359B66
:1002700079CFA1E0EA1609F075CFFF2009F070CF21
:100280000F5F1F4F6DCF0F931F93289A082F10E019
:10029000C8010E944B00C80124E0880F991F2A95CD
:1002A000E1F70E944B0080E49FE10197F1F71F9175
:1002B0000F910895CF93DF93EC0102C00E94430198
:1002C00089918823D9F7DF91CF9108950F931F93D8
:1002D0002898082F10E0C8010E944B00C80134E0A4
:1002E000880F991F3A95E1F70E944B0080E49FE147
:1002F0000197F1F71F910F910895803248F48031F2
:1003000020F080550E946601089580580E94660181
:10031000089580E69AEE0197F1F780E390E00E945D
:100320004B0080E29EE40197F1F780E390E00E94A9
:100330004B0080EE91E00197F1F780E390E00E949E
:100340004B0080E290E00E944B0080E49FE1019727
:10035000F1F788E20E9466018FE00E94660108952D
:10036000AEE0B0E0E6EBF1E00C946C040D891E8980
:100370008F89988D97FF02C080E090E801979E8357
:100380008D831A83098386E08C839E01255E3F4F0F
:10039000CE010196698D7A8DA9010E94E1014D81FE
:1003A0005E8157FD0AC02F813885421753070CF430
:1003B0009A01020F131FF80110822E96E4E00C94AC
:1003C0008804ABE0B0E0E7EEF1E00C945E043C01A1
:1003D0002B015A01FC0117821682838181FD03C023
:1003E0006FEF7FEFC6C19AE0892E1E010894211C91
:1003F000311CF3012381F20123FD859123FF8191BB
:100400002F01882309F4B2C1853239F423FD859187
:1004100023FF81912F01853229F490E0B3010E94DE
:10042000D403E7CF982FFF24EE249924FFE1FF1592
:10043000D0F09B3269F09C3228F4903259F093321C
:1004400091F40EC09D3249F0903369F441E024C02C
:1004500052E0F52A84E0F82A28C098E0F92A25C05D
:10046000E0E1FE2A22C0F7FC29C0892F80538A30A0
:1004700070F4F6FE05C0989C902C1124980E15C0BF
:10048000E89CE02C1124E80EF0E2FF2A0EC09E3218
:1004900029F4F6FC6BC140E4F42A07C09C3619F439
:1004A00050E8F52A02C0983649F4F20123FD9591EF
:1004B00023FF91912F01992309F0B8CF892F8554FB
:1004C000833018F08052833038F444E050E0A40EBA
:1004D000B51E5FE359830FC0933631F0933779F03F
:1004E000933509F056C020C0F5018081898342E030
:1004F00050E0A40EB51E610101E010E012C0F5014C
:10050000C080D180F6FC03C06FEF7FEF02C0692D81
:1005100070E042E050E0A40EB51EC6010E94C9037F
:100520008C015FE7F52214C0F501C080D180F6FC94
:1005300003C06FEF7FEF02C0692D70E042E050E032
:10054000A40EB51EC6010E94BE038C0150E8F52A18
:10055000F3FE07C01AC080E290E0B3010E94D4030A
:10056000EA948E2D90E008171907A8F30EC0F60143
:10057000F7FC8591F7FE81916F0190E0B3010E9435
:10058000D403E110EA94015010400115110579F7E8
:10059000EAC0943611F0993669F5F7FE08C0F50106
:1005A000208131814281538184E090E00AC0F501CD
:1005B000808191819C01442737FD4095542F82E032
:1005C00090E0A80EB91E9FE6F92257FF09C050958A
:1005D0004095309521953F4F4F4F5F4FE0E8FE2A01
:1005E000CA01B901A1012AE030E00E940004D82E1E
:1005F000D21840C0953729F41F2D1F7E2AE030E025
:100600001DC01F2D197F9F3661F0903720F498355B
:1006100009F0ACC00FC0903739F0983709F0A6C088
:1006200004C028E030E00AC0106114FD146020E12D
:1006300030E004C014FD166020E132E017FF08C06E
:10064000F501608171818281938144E050E008C0AE
:10065000F50180819181BC0180E090E042E050E0B2
:10066000A40EB51EA1010E940004D82ED2188FE757
:10067000F82EF122F6FE0BC05EEFF522D91438F405
:10068000F4FE07C0F2FC05C08FEEF82202C01D2D5B
:1006900001C0192DF4FE0DC0FE01ED0DF11D80818C
:1006A000803319F499EEF92208C01F5FF2FE05C0ED
:1006B00003C08F2D867809F01F5F0F2DF3FC14C047
:1006C000F0FE0FC01E1510F09D2C0BC09D2C9E0C33
:1006D000911A1E2D06C080E290E0B3010E94D4035F
:1006E0001F5F1E15C0F304C01E1510F4E11A01C0EF
:1006F000EE2404FF0FC080E390E0B3010E94D40316
:1007000002FF1DC001FD03C088E790E00EC088E530
:1007100090E00BC0802F867891F001FF02C08BE241
:1007200001C080E2F7FC8DE290E0B3010E94D403A7
:1007300006C080E390E0B3010E94D4039A94D914D8
:10074000C0F3DA94F101ED0DF11D808190E0B30169
:100750000E94D403DD20A9F706C080E290E0B30137
:100760000E94D403EA94EE20C1F743CEF3016681E0
:100770007781CB012B96E2E10C947A04FC01059081
:10078000615070400110D8F7809590958E0F9F1F93
:100790000895FC016150704001900110D8F78095D8
:1007A00090958E0F9F1F08950F931F93CF93DF9304
:1007B0008C01EB018B8181FF1BC082FF0DC02E815C
:1007C0003F818C819D812817390764F4E881F98184
:1007D0000193F983E88306C0E885F985802F0995A0
:1007E000892B31F48E819F8101969F838E8302C075
:1007F0000FEF1FEFC801DF91CF911F910F91089567
:10080000FA01AA27283051F1203181F1E8946F9341
:100810006E7F6E5F7F4F8F4F9F4FAF4FB1E03ED0E7
:10082000B4E03CD0670F781F891F9A1FA11D680F85
:10083000791F8A1F911DA11D6A0F711D811D911DB8
:10084000A11D20D009F468943F912AE0269F11242D
:100850003019305D3193DEF6CF010895462F477091
:10086000405D4193B3E00FD0C9F7F6CF462F4F70EC
:10087000405D4A3318F0495D31FD4052419302D04A
:10088000A9F7EACFB4E0A6959795879577956795F0
:10089000BA95C9F700976105710508959B01AC01F0
:1008A0000A2E06945795479537952795BA95C9F717
:1008B000620F731F841F951FA01D08952F923F92F2
:1008C0004F925F926F927F928F929F92AF92BF9260
:1008D000CF92DF92EF92FF920F931F93CF93DF930C
:1008E000CDB7DEB7CA1BDB0B0FB6F894DEBF0FBE69
:1008F000CDBF09942A88398848885F846E847D84B6
:100900008C849B84AA84B984C884DF80EE80FD80B7
:100910000C811B81AA81B981CE0FD11D0FB6F8942D
:0E092000DEBF0FBECDBFED010895F894FFCFEE
:0A092E004E756D3A0020256420008C
:00000001FF
