:100000000C9434000C9446000C9446000C9446006A
:100010000C9448000C9446000C9446000C94460046
:100020000C9446000C9446000C9446000C94460038
:100030000C9446000C9446000C9446000C94460028
:100040000C9446000C9446000C9446000C94460018
:100050000C9446000C9446000C9446000C94460008
:100060000C9446000C94460011241FBECFEFD8E03C
:10007000DEBFCDBF11E0A0E0B1E001C01D92A6300F
:10008000B107E1F70E942F010C949F010C9400002E
:100090001F920F920FB60F9211248F939F9380910E
:1000A000020190910301909305018093040134991A
:1000B00015C0359913C080910001882379F480918F
:1000C0000101813059F41092010180910201909157
:1000D000030101969093030180930201349915C0A6
:1000E000359913C080910001813079F4809101012C
:1000F000882359F41092000180910201909103012C
:1001000001979093030180930201349916C0359BA7
:1001100014C080910001882381F48091010188231B
:1001200061F481E0809300018091020190910301CC
:1001300001969093030180930201349915C0359B79
:1001400013C080910001813079F4809101018130E8
:1001500059F41092010180910201909103010197DD
:100160009093030180930201349B16C0359914C00B
:1001700080910001882381F480910101882361F43A
:1001800081E0809301018091020190910301019728
:100190009093030180930201349B15C0359913C0DD
:1001A00080910001813079F480910101813059F40E
:1001B00010920001809102019091030101969093A9
:1001C000030180930201349B15C0359B13C08091BD
:1001D0000001882379F480910101813059F48093E2
:1001E0000001809102019091030101979093030116
:1001F00080930201349B15C0359B13C09091000180
:10020000913079F480910101882359F49093010190
:1002100080910201909103010196909303018093D4
:1002200002019F918F910F900FBE0F901F90189514
:1002300088E391E090938900809388008CE090E0BF
:1002400090938B0080938A00E0E8F0E080818362E5
:100250008083E1E8F0E080818D6180830895229AB7
:10026000449A459A809168008260809368008091EA
:100270006C00806380936C0078940E9418018091D8
:100280008A0090918B0090930301809302018091EA
:100290008A0090918B00909305018093040134991A
:1002A00006C0359904C010920001109201013499E2
:1002B00007C0359B05C081E08093000110920101C9
:1002C000349B07C0359905C01092000181E08093EE
:1002D0000101349B07C0359B05C081E0809300017C
:1002E000809301016BE070E043E250E080910201F5
:1002F0009091030184972CF05093030140930201E5
:100300000AC080910201909103010B9724F470932D
:100310000301609302012091020130910301809159
:100320000401909105012817390701F3809102011A
:100330009091030190938B0080938A00D7CFF8941B
:02034000FFCFED
:00000001FF
