:100000000C9434000C9451000C9451000C94510049
:100010000C9453000C9451000C9451000C9451001A
:100020000C9451000C9451000C9451000C9451000C
:100030000C9451000C9451000C9451000C945100FC
:100040000C9451000C9451000C9451000C945100EC
:100050000C9451000C9451000C9451000C945100DC
:100060000C9451000C94510011241FBECFEFD8E026
:10007000DEBFCDBF11E0A0E0B1E0E4E8FAE002C0ED
:1000800005900D92AA30B107D9F711E0AAE0B1E0CE
:1000900001C01D92A031B107E1F70E9489010C94C3
:1000A00040050C9400001F920F920FB60F9211247E
:1000B0008F939F9380910A0190910B0190930D0172
:1000C00080930C01349915C0359913C080910E01AD
:1000D000882379F480910F01813059F410920F0137
:1000E00080910A0190910B01019690930B018093EE
:1000F0000A01349915C0359913C080910E018130E1
:1001000079F480910F01882359F410920E018091A7
:100110000A0190910B01019790930B0180930A01C2
:10012000349916C0359B14C080910E01882381F448
:1001300080910F01882361F481E080930E0180910A
:100140000A0190910B01019690930B0180930A0193
:10015000349915C0359B13C080910E01813079F41C
:1001600080910F01813059F410920F0180910A01A2
:1001700090910B01019790930B0180930A01349B9E
:1001800016C0359914C080910E01882381F48091A6
:100190000F01882361F481E080930F0180910A01AF
:1001A00090910B01019790930B0180930A01349B6E
:1001B00015C0359913C080910E01813079F480917A
:1001C0000F01813059F410920E0180910A01909133
:1001D0000B01019690930B0180930A01349B15C08B
:1001E000359B13C080910E01882379F480910F0113
:1001F000813059F480930E0180910A0190910B0196
:10020000019790930B0180930A01349B15C0359B95
:1002100013C090910E01913079F480910F018823E1
:1002200059F490930F0180910A0190910B0101966E
:1002300090930B0180930A019F918F910F900FBEB5
:100240000F901F9018959BB19F709BB99BB1807FB9
:10025000892B8BB9299A299A299808951F93182FC9
:10026000289A0E942301812F8295807F0E9423017A
:1002700080E49FE10197F1F71F910895CF93DF93F9
:10028000EC0102C00E942E0189918823D9F7DF91E9
:10029000CF9108951F93182F28980E942301812F32
:1002A0008295807F0E94230180E49FE10197F1F70E
:1002B0001F910895803248F4803120F080550E94CB
:1002C0004A01089580580E944A01089580E69AEEF6
:1002D0000197F1F780E30E94230180E29EE40197F9
:1002E000F1F780E30E94230180EE91E00197F1F79E
:1002F00080E30E94230180E20E94230180E49FE1C9
:100300000197F1F788E20E944A018FE00E944A01BA
:100310000895AF92BF92CF92DF92EF92FF920F9328
:100320001F93DF93CF93CDB7DEB72A970FB6F8941C
:10033000DEBF0FBECDBF579A569A559A549A219A4E
:10034000209A449A459A8091680082608093680060
:1003500080916C00806380936C0078940E946601A9
:1003600081E00E944A0182E00E944A0180E091E01F
:100370000E943E0184E00E945A0120910A013091BE
:100380000B018DB79EB708970FB6F8949EBF0FBEAE
:100390008DBFEDB7FEB731968E010F5F1F4FADB722
:1003A000BEB712961C930E93119785E090E093834D
:1003B000828385E091E095838483378326830E943E
:1003C0005B022DB73EB7285F3F4F0FB6F8943EBF94
:1003D0000FBE2DBFC8010E943E01349906C0359959
:1003E00004C010920E0110920F01349907C0359B82
:1003F00005C081E080930E0110920F01349B07C06D
:10040000359905C010920E0181E080930F01349B55
:1004100007C0359B05C081E080930E0180930F01DA
:1004200020E9A22E21E0B22E8E010A5F1F4F95E037
:10043000C92ED12C85E0E82E81E0F82E20910A010A
:1004400030910B0180910C0190910D012817390713
:10045000A9F388EE93E0F5013197F1F70197D9F709
:1004600084E00E945A0180910A0190910B01ADB77E
:10047000BEB718970FB6F894BEBF0FBEADBFEDB7AD
:10048000FEB7319612961C930E931197D382C282B7
:10049000F582E482978386830E945B022DB73EB784
:1004A000285F3F4F0FB6F8943EBF0FBE2DBFC80167
:1004B0000E943E01C3CFAEE0B0E0E1E6F2E00C9472
:1004C00017050D891E898F89988D97FF02C080E0DE
:1004D00090E801979E838D831A83098386E08C833D
:1004E0009E01255E3F4FCE010196698D7A8DA9014F
:1004F0000E948C024D815E8157FD0AC02F81388594
:10050000421753070CF49A01020F131FF8011082CF
:100510002E96E4E00C943305ABE0B0E0E2E9F2E0C3
:100520000C9409053C012B015A01FC01178216822B
:10053000838181FD03C06FEF7FEFC6C19AE0892EF2
:100540001E010894211C311CF3012381F20123FDBB
:10055000859123FF81912F01882309F4B2C185324F
:1005600039F423FD859123FF81912F01853229F4F0
:1005700090E0B3010E947F04E7CF982FFF24EE2480
:100580009924FFE1FF15D0F09B3269F09C3228F4EA
:10059000903259F0933291F40EC09D3249F090336D
:1005A00069F441E024C052E0F52A84E0F82A28C02A
:1005B00098E0F92A25C0E0E1FE2A22C0F7FC29C014
:1005C000892F80538A3070F4F6FE05C0989C902CD9
:1005D0001124980E15C0E89CE02C1124E80EF0E2DE
:1005E000FF2A0EC09E3229F4F6FC6BC140E4F42AC7
:1005F00007C09C3619F450E8F52A02C0983649F431
:10060000F20123FD959123FF91912F01992309F088
:10061000B8CF892F8554833018F08052833038F456
:1006200044E050E0A40EB51E5FE359830FC093363B
:1006300031F0933779F0933509F056C020C0F501B9
:100640008081898342E050E0A40EB51E610101E083
:1006500010E012C0F501C080D180F6FC03C06FEF3E
:100660007FEF02C0692D70E042E050E0A40EB51E9D
:10067000C6010E9474048C015FE7F52214C0F501E5
:10068000C080D180F6FC03C06FEF7FEF02C0692D00
:1006900070E042E050E0A40EB51EC6010E9469045D
:1006A0008C0150E8F52AF3FE07C01AC080E290E002
:1006B000B3010E947F04EA948E2D90E00817190779
:1006C000A8F30EC0F601F7FC8591F7FE81916F014A
:1006D00090E0B3010E947F04E110EA9401501040C1
:1006E0000115110579F7EAC0943611F0993669F5CC
:1006F000F7FE08C0F501208131814281538184E0F9
:1007000090E00AC0F501808191819C01442737FD6A
:100710004095542F82E090E0A80EB91E9FE6F92282
:1007200057FF09C050954095309521953F4F4F4F49
:100730005F4FE0E8FE2ACA01B901A1012AE030E0DA
:100740000E94AB04D82ED21840C0953729F41F2D33
:100750001F7E2AE030E01DC01F2D197F9F3661F0FB
:10076000903720F4983509F0ACC00FC0903739F0BD
:10077000983709F0A6C004C028E030E00AC0106134
:1007800014FD146020E130E004C014FD166020E187
:1007900032E017FF08C0F501608171818281938189
:1007A00044E050E008C0F50180819181BC0180E007
:1007B00090E042E050E0A40EB51EA1010E94AB04FF
:1007C000D82ED2188FE7F82EF122F6FE0BC05EEF7E
:1007D000F522D91438F4F4FE07C0F2FC05C08FEE00
:1007E000F82202C01D2D01C0192DF4FE0DC0FE011E
:1007F000ED0DF11D8081803319F499EEF92208C0C6
:100800001F5FF2FE05C003C08F2D867809F01F5FC1
:100810000F2DF3FC14C0F0FE0FC01E1510F09D2C20
:100820000BC09D2C9E0C911A1E2D06C080E290E0FC
:10083000B3010E947F041F5F1E15C0F304C01E1584
:1008400010F4E11A01C0EE2404FF0FC080E390E031
:10085000B3010E947F0402FF1DC001FD03C088E7B1
:1008600090E00EC088E590E00BC0802F867891F074
:1008700001FF02C08BE201C080E2F7FC8DE290E054
:10088000B3010E947F0406C080E390E0B3010E94A0
:100890007F049A94D914C0F3DA94F101ED0DF11D9F
:1008A000808190E0B3010E947F04DD20A9F706C09B
:1008B00080E290E0B3010E947F04EA94EE20C1F749
:1008C00043CEF30166817781CB012B96E2E10C9454
:1008D0002505FC010590615070400110D8F7809506
:1008E00090958E0F9F1F0895FC01615070400190FC
:1008F0000110D8F7809590958E0F9F1F08950F9344
:100900001F93CF93DF938C01EB018B8181FF1BC081
:1009100082FF0DC02E813F818C819D812817390770
:1009200064F4E881F9810193F983E88306C0E885DE
:10093000F985802F0995892B31F48E819F8101964D
:100940009F838E8302C00FEF1FEFC801DF91CF910D
:100950001F910F910895FA01AA27283051F12031F3
:1009600081F1E8946F936E7F6E5F7F4F8F4F9F4F43
:10097000AF4FB1E03ED0B4E03CD0670F781F891F85
:100980009A1FA11D680F791F8A1F911DA11D6A0F53
:10099000711D811D911DA11D20D009F468943F9106
:1009A0002AE0269F11243019305D3193DEF6CF0105
:1009B0000895462F4770405D4193B3E00FD0C9F7CB
:1009C000F6CF462F4F70405D4A3318F0495D31FD38
:1009D0004052419302D0A9F7EACFB4E0A69597958B
:1009E000879577956795BA95C9F700976105710561
:1009F00008959B01AC010A2E0694579547953795AB
:100A00002795BA95C9F7620F731F841F951FA01D04
:100A100008952F923F924F925F926F927F928F92A2
:100A20009F92AF92BF92CF92DF92EF92FF920F937D
:100A30001F93CF93DF93CDB7DEB7CA1BDB0B0FB687
:100A4000F894DEBF0FBECDBF09942A883988488844
:100A50005F846E847D848C849B84AA84B984C884DA
:100A6000DF80EE80FD800C811B81AA81B981CE0FD1
:100A7000D11D0FB6F894DEBF0FBECDBFED010895B6
:040A8000F894FFCF18
:0A0A84004E756D3A00202564200035
:00000001FF
