:100000000C9434000C943E000C943E000C943E0082
:100010000C943E000C943E000C943E000C943E0068
:100020000C943E000C943E000C943E000C943E0058
:100030000C943E000C943E000C943E000C943E0048
:100040000C943E000C943E000C943E000C943E0038
:100050000C943E000C943E000C943E000C943E0028
:100060000C943E000C943E0011241FBECFEFD8E04C
:10007000DEBFCDBF0E9440000C94ED000C94000048
:10008000209A5A9A5B9A5C9A20E931E04A9930C0EA
:10009000289A88EB9BE0F9013197F1F70197D9F79E
:1000A000289888EB9BE0F9013197F1F70197D9F790
:1000B000289A88EB9BE0F9013197F1F70197D9F77E
:1000C000289888EB9BE0F9013197F1F70197D9F770
:1000D000289A88E293E2F9013197F1F70197D9F76D
:1000E000289888E293E2F9013197F1F70197D9F75F
:1000F0004B9930C0289A88EB9BE0F9013197F1F7D2
:100100000197D9F7289888EB9BE0F9013197F1F72F
:100110000197D9F7289A88EB9BE0F9013197F1F71D
:100120000197D9F7289888EB9BE0F9013197F1F70F
:100130000197D9F7289A88EB9BE0F9013197F1F7FD
:100140000197D9F7289888E293E2F9013197F1F7FE
:100150000197D9F74C999ACF289A88E293E2F9014E
:100160003197F1F70197D9F7289888EB9BE0F901CF
:100170003197F1F70197D9F7289A88EB9BE0F901BD
:100180003197F1F70197D9F7289888EB9BE0F901AF
:100190003197F1F70197D9F7289A88E293E2F901AC
:1001A0003197F1F70197D9F7289888EB9BE0F9018F
:1001B0003197F1F70197D9F7289A88EB9BE0F9017D
:1001C0003197F1F70197D9F7289888E293E2F9017E
:0E01D0003197F1F70197D9F759CFF894FFCF87
:00000001FF
