:100000000C9434000C943E000C943E000C943E0082
:100010000C943E000C943E000C943E000C943E0068
:100020000C943E000C943E000C943E000C943E0058
:100030000C943E000C943E000C943E000C943E0048
:100040000C943E000C943E000C943E000C943E0038
:100050000C943E000C943E000C943E000C943E0028
:100060000C943E000C943E0011241FBECFEFD8E04C
:10007000DEBFCDBF0E9454000C94D7000C9400004A
:1000800095B1907F95B925B1982F959595959595B2
:10009000922B95B99BB19F709BB99BB18295880FAC
:1000A000807E982B9BB90895CF92DF92EF92FF92BA
:1000B0001F93DF93CF93CDB7DEB72A970FB6F8948F
:1000C000DEBF0FBECDBF239A229A219A209A579A5B
:1000D000569A559A429A449A81E089838FE48A839A
:1000E00082E18B8386E08C838CE48D8384E28E8333
:1000F00080E28F838FE0888719868CE08A8781E091
:100100000E94400010E080E9E82E81E0F82E6E01A8
:100110000894C11CD11C329B03C023C011E00DC048
:100120001A305CF081E00E94400088E893E1F7011A
:100130003197F1F70197D9F7F1CF349BECCFE12F4D
:10014000FF27E7FDF095EC0DFD1D80810E9440002A
:1001500088E893E1F7013197F1F70197D9F71F5F2D
:10016000DFCF349B03C0D7CF18E00DC017FF0BC003
:100170008CE00E94400088E893E1F7013197F1F7A5
:100180000197D9F7F1CF329BC6CFE12FFF27E7FDCB
:10019000F095EC0DFD1D80810E94400088E893E100
:1001A000F7013197F1F70197D9F71150DFCFF894A4
:0201B000FFCF7F
:00000001FF
