:100000000C9434000C9449000C9449000C94490061
:100010000C9449000C9449000C9449000C9449003C
:100020000C9449000C9449000C9449000C9449002C
:100030000C9449000C9449000C9449000C9449001C
:100040000C9449000C9449000C9449000C9449000C
:100050000C9449000C9449000C9449000C944900FC
:100060000C9449000C94490011241FBECFEFD8E036
:10007000DEBFCDBF11E0A0E0B1E0E6EDF1E002C0EF
:1000800005900D92A632B107D9F70E94D0000C94CA
:10009000E9000C9400002BB1982F907F922B9BB914
:1000A0009BB18F6089238BB9299A2998662331F0F7
:1000B0008FE39FE10197F1F700C000000895CF930F
:1000C000C82F2998289A60E00E944B0061E08C2F8D
:1000D0008295807FCF910C944B00CF93DF93C82FF4
:1000E000D62F95B19C7F95B960E00E944B006D2F93
:1000F0008C2F8295807FDF91CF910C944B00EF92F3
:10010000FF921F93CF93DF931F92CDB7DEB7162FC9
:1001100061E0806879830E946D00E12E7981F72E7D
:10012000F70181917F01882319F00E945F00F8CFC9
:100130000F90DF91CF911F91FF90EF9008958FE581
:100140009AEE0197F1F700C0000060E080E30E94A2
:100150004B008FE19EE40197F1F700C0000060E0E2
:1001600080E30E944B008FED91E00197F1F700C012
:10017000000060E080E30E944B0061E080E20E94AA
:100180004B0061E088E20E946D0061E08FE00C941A
:100190006D008FE39FE10197F1F700C00000089523
:1001A0008AB1806F8AB984B1836084B90E949F004C
:1001B000609102017091030180E090E00E947F0055
:1001C000609100017091010180E490E00E947F0045
:0601D000FFCFF894FFCF01
:1001D600040115013E3E2055534320454531303933
:1001E6004C203C3C004C43442054657374205072B0
:0601F6006F6772616D00ED
:00000001FF
